{
  "contractName": "Marketplace",
  "abi": [
    {
      "constant": true,
      "inputs": [],
      "name": "x",
      "outputs": [
        {
          "name": "",
          "type": "uint256"
        }
      ],
      "payable": false,
      "stateMutability": "view",
      "type": "function"
    },
    {
      "inputs": [],
      "payable": false,
      "stateMutability": "nonpayable",
      "type": "constructor"
    },
    {
      "constant": false,
      "inputs": [],
      "name": "increment",
      "outputs": [],
      "payable": false,
      "stateMutability": "nonpayable",
      "type": "function"
    },
    {
      "constant": false,
      "inputs": [],
      "name": "decrement",
      "outputs": [],
      "payable": false,
      "stateMutability": "nonpayable",
      "type": "function"
    },
    {
      "constant": false,
      "inputs": [],
      "name": "getX",
      "outputs": [
        {
          "name": "",
          "type": "uint256"
        }
      ],
      "payable": false,
      "stateMutability": "nonpayable",
      "type": "function"
    }
  ],
  "bytecode": "0x608060405234801561001057600080fd5b506000808190555061014a806100276000396000f300608060405260043610610062576000357c0100000000000000000000000000000000000000000000000000000000900463ffffffff1680630c55699c146100675780632baeceb7146100925780635197c7aa146100a9578063d09de08a146100d4575b600080fd5b34801561007357600080fd5b5061007c6100eb565b6040518082815260200191505060405180910390f35b34801561009e57600080fd5b506100a76100f1565b005b3480156100b557600080fd5b506100be610103565b6040518082815260200191505060405180910390f35b3480156100e057600080fd5b506100e961010c565b005b60005481565b60016000808282540392505081905550565b60008054905090565b600160008082825401925050819055505600a165627a7a723058208dc5ac3d30e8c9c4604c25eed0097ff1158bbd1fcd15a2a24cc9fab3b18f8dbe0029",
  "source": "pragma solidity ^0.4.17;\n\ncontract Marketplace {\n    uint public x;\n    constructor () public {\n        x=0;\n    }   \n    function increment() public {\n        x+=1;\n    }\n    function decrement() public {\n        x-=1;\n    }\n    function getX() public returns (uint) {\n        return x;\n    }\n}",
  "sourcePath": "/home/greenie/Documents/marketplace/contracts/Marketplace.sol",
  "compiler": {
    "name": "solc",
    "version": "0.4.24+commit.e67f0147.Emscripten.clang"
  },
  "schemaVersion": "2.0.1",
  "updatedAt": "2018-06-27T15:28:52.623Z"
}