{
  "contractName": "Sale",
  "abi": [
    {
      "constant": true,
      "inputs": [],
      "name": "currentKey",
      "outputs": [
        {
          "name": "",
          "type": "uint256"
        }
      ],
      "payable": false,
      "stateMutability": "view",
      "type": "function"
    },
    {
      "constant": true,
      "inputs": [
        {
          "name": "",
          "type": "uint256"
        }
      ],
      "name": "listings",
      "outputs": [
        {
          "name": "listingName",
          "type": "string"
        },
        {
          "name": "price",
          "type": "uint256"
        },
        {
          "name": "listingMaker",
          "type": "address"
        }
      ],
      "payable": false,
      "stateMutability": "view",
      "type": "function"
    },
    {
      "inputs": [],
      "payable": false,
      "stateMutability": "nonpayable",
      "type": "constructor"
    },
    {
      "anonymous": false,
      "inputs": [
        {
          "indexed": false,
          "name": "nName",
          "type": "string"
        },
        {
          "indexed": false,
          "name": "nPrice",
          "type": "uint256"
        },
        {
          "indexed": false,
          "name": "nListingMaker",
          "type": "address"
        }
      ],
      "name": "ListingCreated",
      "type": "event"
    },
    {
      "constant": false,
      "inputs": [
        {
          "name": "nName",
          "type": "string"
        },
        {
          "name": "nPrice",
          "type": "uint256"
        },
        {
          "name": "nListingMaker",
          "type": "address"
        }
      ],
      "name": "create",
      "outputs": [],
      "payable": false,
      "stateMutability": "nonpayable",
      "type": "function"
    },
    {
      "constant": false,
      "inputs": [
        {
          "name": "id",
          "type": "uint256"
        }
      ],
      "name": "deleteListing",
      "outputs": [],
      "payable": false,
      "stateMutability": "nonpayable",
      "type": "function"
    }
  ],
  "bytecode": "0x608060405234801561001057600080fd5b5060008081905550610672806100276000396000f300608060405260043610610062576000357c0100000000000000000000000000000000000000000000000000000000900463ffffffff16806336a5549414610067578063a0ddb418146100fa578063de74e57b14610125578063e6282c6e14610205575b600080fd5b34801561007357600080fd5b506100f8600480360381019080803590602001908201803590602001908080601f016020809104026020016040519081016040528093929190818152602001838380828437820191505050505050919291929080359060200190929190803573ffffffffffffffffffffffffffffffffffffffff169060200190929190505050610232565b005b34801561010657600080fd5b5061010f610392565b6040518082815260200191505060405180910390f35b34801561013157600080fd5b5061015060048036038101908080359060200190929190505050610398565b60405180806020018481526020018373ffffffffffffffffffffffffffffffffffffffff1673ffffffffffffffffffffffffffffffffffffffff168152602001828103825285818151815260200191508051906020019080838360005b838110156101c85780820151818401526020810190506101ad565b50505050905090810190601f1680156101f55780820380516001836020036101000a031916815260200191505b5094505050505060405180910390f35b34801561021157600080fd5b506102306004803603810190808035906020019092919050505061047a565b005b6060604051908101604052808481526020018381526020018273ffffffffffffffffffffffffffffffffffffffff16815250600260008201518160000190805190602001906102829291906104d2565b506020820151816001015560408201518160020160006101000a81548173ffffffffffffffffffffffffffffffffffffffff021916908373ffffffffffffffffffffffffffffffffffffffff160217905550905050600260016000600160005401815260200190815260200160002060008201816000019080546001816001161561010002031660029004610318929190610552565b50600182015481600101556002820160009054906101000a900473ffffffffffffffffffffffffffffffffffffffff168160020160006101000a81548173ffffffffffffffffffffffffffffffffffffffff021916908373ffffffffffffffffffffffffffffffffffffffff160217905550905050505050565b60005481565b6001602052806000526040600020600091509050806000018054600181600116156101000203166002900480601f0160208091040260200160405190810160405280929190818152602001828054600181600116156101000203166002900480156104445780601f1061041957610100808354040283529160200191610444565b820191906000526020600020905b81548152906001019060200180831161042757829003601f168201915b5050505050908060010154908060020160009054906101000a900473ffffffffffffffffffffffffffffffffffffffff16905083565b600160008281526020019081526020016000206000808201600061049e91906105d9565b60018201600090556002820160006101000a81549073ffffffffffffffffffffffffffffffffffffffff0219169055505050565b828054600181600116156101000203166002900490600052602060002090601f016020900481019282601f1061051357805160ff1916838001178555610541565b82800160010185558215610541579182015b82811115610540578251825591602001919060010190610525565b5b50905061054e9190610621565b5090565b828054600181600116156101000203166002900490600052602060002090601f016020900481019282601f1061058b57805485556105c8565b828001600101855582156105c857600052602060002091601f016020900482015b828111156105c75782548255916001019190600101906105ac565b5b5090506105d59190610621565b5090565b50805460018160011615610100020316600290046000825580601f106105ff575061061e565b601f01602090049060005260206000209081019061061d9190610621565b5b50565b61064391905b8082111561063f576000816000905550600101610627565b5090565b905600a165627a7a72305820810692547ac93dc52e7cacc4e9aa0d76a6b30a6cc12a3458cff8d591aa4bbf700029",
  "source": "pragma solidity ^0.4.17;\n\ncontract Sale {\n    enum DealType { physical, digital } \n    enum PaymentOption { cash, crypto }\n    \n    struct Listing {\n        // General meta-data of the listing.\n        string listingName;\n        uint price; \n        address listingMaker;\n        // Logistics of the listing: How will it happen? How will the buyer pay?\n        //DealType dealType;\n        //PaymentOption paymentOption;\n    }\n    \n    uint public currentKey;    \n    mapping (uint => Listing) public listings;\n\n    event ListingCreated(string nName, uint nPrice, address nListingMaker);\n\n    // Empty container for new listings [TO-DO: FIGURE OUT BETTER, MORE EFFICENT WAY SOON]\n    Listing private newListing; \n\n    constructor () public {\n        currentKey = 0;    \n    }\n\n    // function payForListing(uint listingId) public payable {\n    //     uint listingPrice = listings[listingId].price;\n    //     address listingPayee = listings[listingId].listingMaker;\n    //     address personPaying = msg.sender;\n\n    //     require(personPaying.balance >= listingPrice);\n        \n    //     // Listing A: Car, 1 Ether, User A (address); with 100ETH\n        \n    //     // User B: Address; with 100ETH => payForListing\n        \n    //     // DEDUCT 1ETH FROM USER B => SALE.SOL (ADDRESS) TAKES 0.25(1ETH) => USER A GETS 1ETH-(0.25*1ETH)\n\n    // }\n\n    function create(string nName, uint nPrice, address nListingMaker) public {\n        newListing = Listing({listingName: nName, price: nPrice, listingMaker: nListingMaker});\n        listings[currentKey+1]=newListing;\n    }\n\n    function deleteListing(uint id) public {\n        delete listings[id];\n    }\n}",
  "sourcePath": "/home/greenie/Documents/marketplace/contracts/Sale.sol",
  "compiler": {
    "name": "solc",
    "version": "0.4.24+commit.e67f0147.Emscripten.clang"
  },
  "schemaVersion": "2.0.1",
  "updatedAt": "2018-06-27T14:49:59.163Z"
}