{
  "contractName": "Sale",
  "abi": [
    {
      "constant": true,
      "inputs": [],
      "name": "currentKey",
      "outputs": [
        {
          "name": "",
          "type": "uint256"
        }
      ],
      "payable": false,
      "stateMutability": "view",
      "type": "function"
    },
    {
      "constant": true,
      "inputs": [
        {
          "name": "",
          "type": "uint256"
        }
      ],
      "name": "listings",
      "outputs": [
        {
          "name": "listingName",
          "type": "string"
        },
        {
          "name": "price",
          "type": "uint256"
        },
        {
          "name": "dealType",
          "type": "uint8"
        },
        {
          "name": "paymentOption",
          "type": "uint8"
        }
      ],
      "payable": false,
      "stateMutability": "view",
      "type": "function"
    },
    {
      "inputs": [],
      "payable": false,
      "stateMutability": "nonpayable",
      "type": "constructor"
    },
    {
      "constant": false,
      "inputs": [
        {
          "name": "name",
          "type": "string"
        },
        {
          "name": "price",
          "type": "uint256"
        },
        {
          "name": "typeOfDeal",
          "type": "uint8"
        },
        {
          "name": "typeOfPayment",
          "type": "uint8"
        }
      ],
      "name": "createListing",
      "outputs": [],
      "payable": false,
      "stateMutability": "nonpayable",
      "type": "function"
    }
  ],
  "bytecode": "0x608060405234801561001057600080fd5b5060008081905550610305806100276000396000f300608060405260043610610057576000357c0100000000000000000000000000000000000000000000000000000000900463ffffffff168063a0ddb4181461005c578063a6f7afcd14610087578063de74e57b14610114575b600080fd5b34801561006857600080fd5b506100716101eb565b6040518082815260200191505060405180910390f35b34801561009357600080fd5b50610112600480360381019080803590602001908201803590602001908080601f016020809104026020016040519081016040528093929190818152602001838380828437820191505050505050919291929080359060200190929190803560ff169060200190929190803560ff1690602001909291905050506101f1565b005b34801561012057600080fd5b5061013f600480360381019080803590602001909291905050506101f7565b604051808060200185815260200184600181111561015957fe5b60ff16815260200183600181111561016d57fe5b60ff168152602001828103825286818151815260200191508051906020019080838360005b838110156101ad578082015181840152602081019050610192565b50505050905090810190601f1680156101da5780820380516001836020036101000a031916815260200191505b509550505050505060405180910390f35b60005481565b50505050565b6001602052806000526040600020600091509050806000018054600181600116156101000203166002900480601f0160208091040260200160405190810160405280929190818152602001828054600181600116156101000203166002900480156102a35780601f10610278576101008083540402835291602001916102a3565b820191906000526020600020905b81548152906001019060200180831161028657829003601f168201915b5050505050908060010154908060020160009054906101000a900460ff16908060020160019054906101000a900460ff169050845600a165627a7a72305820e89acb5706b1296c65c925bdcf0aa3d1c6cbb57f55c68568f9a6e558eccd59620029",
  "source": "pragma solidity ^0.4.17;\n\ncontract Sale {\n    enum DealType { physical, digital } \n    enum PaymentOption { cash, crypto }\n    \n    struct Listing {\n        // General meta-data of the listing.\n        string listingName;\n        uint price; \n        // Logistics of the listing: How will it happen? How will the buyer pay?\n        DealType dealType;\n        PaymentOption paymentOption;\n    }\n\n    uint public currentKey;    \n    mapping (uint => Listing) public listings;\n\n    constructor () public {\n        currentKey = 0;    \n    }\n    \n    function createListing(string name, uint price, DealType typeOfDeal, PaymentOption typeOfPayment) public {\n       // Listing storage newListing = Listing(name, price, typeOfDeal, typeOfPayment);\n       // listings[currentKey+1]=newListing;\n    }\n}",
  "sourcePath": "/home/greenie/Documents/marketplace/contracts/Sale.sol",
  "compiler": {
    "name": "solc",
    "version": "0.4.24+commit.e67f0147.Emscripten.clang"
  },
  "schemaVersion": "2.0.1",
  "updatedAt": "2018-06-25T21:04:59.195Z"
}